:100000000C9458000C9480000C9480000C94800098
:100010000C9480000C9480000C9480000C94800060
:100020000C9480000C9480000C9480000C94800050
:100030000C9480000C9480000C9480000C94800040
:100040000C94DB020C9480000C9480000C948000D3
:100050000C9480000C9480000C9480000C94800020
:100060000C9425030C94800000000000250028005B
:100070002B00040404040404040402020202020229
:10008000030303030303010204081020408001025C
:1000900004081020010204081020000000080002DB
:1000A00001000003040700000000000000005304EA
:1000B00011241FBECFEFD8E0DEBFCDBF11E0A0E01E
:1000C000B1E0E6E1FBE002C005900D92A234B10779
:1000D000D9F722E0A2E4B1E001C01D92A831B20735
:1000E000E1F710E0C8E5D0E004C02197FE010E94CE
:1000F0007E05C735D107C9F70E9474040C948905A1
:100100000C94000090E0FC01E656FF4F2491FC01A6
:10011000EA57FF4F3491FC01EE58FF4FE491EE2374
:10012000B1F1222339F1233091F038F42130A9F0D4
:10013000223001F584B58F7D12C0273091F0283030
:10014000A1F02430B9F4809180008F7D03C08091AC
:1001500080008F77809380000DC084B58F7784BD39
:1001600009C08091B0008F7703C08091B0008F7D6F
:100170008093B000F0E0EE0FFF1FE859FF4FA5910C
:10018000B4918FB7F894EC91E32BEC938FBF089563
:100190003FB7F8948091FB019091FC01A091FD0183
:1001A000B091FE0126B5A89B05C02F3F19F001961E
:1001B000A11DB11D3FBFBA2FA92F982F8827820FED
:1001C000911DA11DB11DBC01CD0142E0660F771F3D
:1001D000881F991F4A95D1F708958F929F92AF92E9
:1001E000BF92CF92DF92EF92FF926B017C010E944F
:1001F000C8004B015C01C114D104E104F104F1F029
:100200000E94C800DC01CB0188199909AA09BB0921
:10021000883E9340A105B10570F321E0C21AD108D0
:10022000E108F10888EE880E83E0981EA11CB11C3D
:10023000C114D104E104F10419F7DDCFFF90EF9070
:10024000DF90CF90BF90AF909F908F9008950895CA
:100250000895CF92DF92EF92FF920F931F93CF9367
:10026000DF936C017A018B01C0E0D0E0CE15DF0591
:1002700081F0D8016D918D01D601ED91FC91019035
:10028000F081E02DC6010995892B11F02196EECF62
:100290007E01C701DF91CF911F910F91FF90EF90E9
:1002A000DF90CF90089585ED8093BC008091BC00D5
:1002B00084FDFCCF1092F10108954091A401262FF6
:1002C00030E0240F311D21323105DCF42091F101A1
:1002D0002430C9F4FC0180E090E0861758F4309196
:1002E000A4012191DC01AC57BE4FA30FB11D2C938B
:1002F0000196F3CF8091A401680F6093A40180E080
:10030000089581E0089582E008950895E091F5014F
:100310008091F401E81730F4F0E0EC59FE4F808151
:1003200090E008958FEF9FEF08959091F5018091EF
:10033000F401981750F4E92FF0E0EC59FE4F2081BA
:1003400030E09F5F9093F50102C02FEF3FEFC901AE
:1003500008958091F40190E02091F501821B9109AC
:100360000895CF92DF92EF92FF920F931F93CF9356
:10037000DF937C01CB018A0120916301222389F064
:10038000EB016B01C40ED51ECC15DD0569F069913A
:10039000D701ED91FC910190F081E02DC701099505
:1003A000F3CF642F0E945D01C801DF91CF911F91AF
:1003B0000F91FF90EF90DF90CF900895CF93DF9350
:1003C0001F92CDB7DEB76983209163012223D1F05C
:1003D0002091F201203240F021E030E0FC01338333
:1003E000228380E090E015C08091F301E82FF0E0D7
:1003F000ED5BFE4F998190838F5F8093F301809333
:10040000F20105C061E0CE0101960E945D0181E02C
:1004100090E00F90DF91CF910895CF93FC01C481BC
:1004200021E020936301C09342011092F3011092E6
:10043000F2018485682B8FEF91E00E94DE0190919C
:10044000F201913208F045C08091F1018111FCCF99
:1004500082E08093F10181E08093F0018FEF80933F
:10046000C7011092E9019093E801A3E4B1E0E8EC40
:10047000F1E080E0981721F02D9121938F5FFACF62
:100480001092EA018091EA01CC0FC82BC093EA01D7
:100490008091EF01813061F41092EF018091EA01C7
:1004A0008093BB008091BC0083FDF8CF85EC01C038
:1004B00085EE8093BC008091F1018230E1F3809160
:1004C000C7018F3F31F08091C701803211F08091D8
:1004D000C7011092F3011092F20110926301CF91C3
:1004E00008950F931F93CF938C01C62F0E940D0286
:1004F0006C2F6460C8010E940D026C2F6B7FC801D5
:100500000E940D0283EC90E00197F1F7CF911F91CB
:100510000F9108950F931F93CF93DF938C01C62FF4
:10052000D42F607F642B0E94710280E1C89FB001CC
:1005300011246D2BC801DF91CF911F910F910C9465
:100540007102CF93DF93CDB7DEB728970FB6F8943B
:10055000DEBF0FBECDBF98E0E0E0F1E0DE01119616
:1005600001900D929A95E1F790911302981710F46B
:100570008FEF890FFE013196E80FF11DE80FF11D95
:100580006081606840E08BE092E028960FB6F894B6
:10059000DEBF0FBECDBFDF91CF910C948A0241E048
:1005A0000E948A0281E090E00895089580E090E042
:1005B00008950E9484051F920F920FB60F92112486
:1005C0002F933F938F939F93AF93BF938091F701A6
:1005D0009091F801A091F901B091FA013091F601E2
:1005E00023E0230F2D3720F40196A11DB11D05C076
:1005F00026E8230F0296A11DB11D2093F6018093DA
:10060000F7019093F801A093F901B093FA0180915A
:10061000FB019091FC01A091FD01B091FE010196BA
:10062000A11DB11D8093FB019093FC01A093FD01DE
:10063000B093FE01BF91AF919F918F913F912F9108
:100640000F900FBE0F901F9018951F920F920FB62C
:100650000F9211242F933F934F935F936F937F9348
:100660008F939F93AF93BF93EF93FF938091B900C4
:10067000887F803609F49CC068F5883209F45BC035
:1006800090F4803109F454C038F4882309F4F6C09A
:10069000883009F44DC0F6C0883109F44CC080326E
:1006A00009F45DC0EFC0803409F468C048F48033B9
:1006B00009F455C0883309F0E5C08093C701D8C05C
:1006C000803509F44FC0883509F45DC0883409F0DD
:1006D000D9C0D6C0883909F4C7C0A8F4883709F44E
:1006E00067C038F4883609F463C0803709F460C005
:1006F000C9C0883809F4B8C0803909F45FC08038AF
:1007000009F0C0C05BC0803B09F486C038F4803A71
:1007100009F466C0883A09F47FC0B4C0803C09F48B
:10072000A7C0883C09F4A4C0883B09F48AC0AAC0C9
:100730008091EA0110C09091E9018091E801981739
:1007400070F5E091E90181E08E0F8093E901F0E01E
:10075000E853FE4F80818093BB0085EC86C0809378
:10076000C7018EC0E091E90181E08E0F8093E9011D
:100770008091BB00F0E0E853FE4F80839091E90147
:100780008091E8016EC0E091E90181E08E0F8093D5
:10079000E9018091BB00F0E0E853FE4F8083809137
:1007A000F00181116DC081E08093EF0184EA61C0A6
:1007B00083E08093F1011092C601CFCF8091C601F2
:1007C000803208F051C0E091C60181E08E0F809325
:1007D000C6018091BB00F0E0EA55FE4F8083BDCF9B
:1007E00085EC8093BC001092F1018091C6018032AB
:1007F00030F4E091C601F0E0EA55FE4F10826091BE
:10080000C60170E0E091EB01F091EC0186EA91E025
:1008100009951092C60136C084E08093F1011092D0
:10082000A5011092A401E091ED01F091EE0109956E
:100830008091A401811105C081E08093A4011092F0
:100840008401E091A50181E08E0F8093A501F0E085
:10085000EC57FE4F80818093BB009091A501809161
:10086000A401981708F479CF85E88093BC000AC0EA
:1008700085EC8093BC001092F10104C01092C70176
:100880000E945301FF91EF91BF91AF919F918F9182
:100890007F916F915F914F913F912F910F900FBE7C
:1008A0000F901F901895EFEFF1E01382128288EEFF
:1008B00093E0A0E0B0E084839583A683B7838CE0C7
:1008C00091E091838083EBE0F2E0138212828EE16B
:1008D00091E091838083118687E2848380E182871F
:1008E00082E0838714860895789484B5826084BDFD
:1008F00084B5816084BD85B5826085BD85B5816024
:1009000085BD80916E00816080936E0010928100A1
:10091000809181008260809381008091810081605C
:10092000809381008091800081608093800080911D
:10093000B10084608093B1008091B00081608093A9
:10094000B00080917A00846080937A0080917A0070
:10095000826080937A0080917A00816080937A002F
:1009600080917A00806880937A001092C100109282
:10097000F5011092F4011092F3011092F20110921D
:10098000F10181E08093F0011092EF0182E10E9479
:10099000820083E10E9482008091B9008E7F809363
:1009A000B9008091B9008D7F8093B90088E480936D
:1009B000B80085E48093BC0087E291E09093EE015B
:1009C0008093ED0188E291E09093EC018093EB013C
:1009D0001092100280911602823018F098E09093E5
:1009E00010028093130262E370E080E090E00E94C6
:1009F000ED00609117028BE092E00E940D0268EE1C
:100A000073E080E090E00E94ED0060E38BE092E014
:100A10000E947102CBE4D6E4CE010197F1F760E3C6
:100A20008BE092E00E9471022197F1F760E38BE086
:100A300092E00E94710283E592E00197F1F760E293
:100A40008BE092E00E94710260911002606240E0CF
:100A50008BE092E00E948A0284E08093110240E0E1
:100A60006CE08BE092E00E948A0240E061E08BE063
:100A700092E00E948A028BE39FE10197F1F7809157
:100A80001402882319F080E00E94A10282E0809382
:100A9000120240E066E08BE092E00E948A0240E0B1
:100AA00062E08BE092E00E948A028BE39FE1019773
:100AB000F1F788E08093170260E08BE092E00E94FB
:100AC0000D0280E00E94A1024DE050E066E271E07C
:100AD0008BE092E00E94290181E00E94A1024DE09A
:100AE00050E064E371E08BE092E00E942901C0E0F5
:100AF000D0E02097F1F30E940000FBCFEE0FFF1F24
:100B00000590F491E02D099481E090E0F8940C9424
:060B10008905F894FFCFF7
:100B1600000040001400540000000000DE01B10196
:100B2600D6028501A9019501860100000000CF02C9
:100B36002901D602D50248656C6C6F204172647536
:100B4600696E6F0053686976616D2052616A7075CF
:020B5600740029
:00000001FF
