:100000000C945D000C9485000C9485000C94850084
:100010000C9485000C9485000C9485000C9485004C
:100020000C9485000C9485000C9485000C9485003C
:100030000C9485000C9485000C9485000C9485002C
:100040000C948C020C9485000C9485000C94850013
:100050000C9485000C9485000C9485000C9485000C
:100060000C9485000C94850000000008000201003B
:100070000003040700000000000000000000000072
:10008000250028002B0000000000240027002A0083
:10009000040404040404040402020202020203032E
:1000A0000303030301020408102040800102040836
:1000B00010200102040810205E0311241FBECFEFA0
:1000C000D8E0DEBFCDBF11E0A0E0B1E0E2E1F7E0B3
:1000D00002C005900D92AA31B107D9F721E0AAE13B
:1000E000B1E001C01D92AB33B207E1F710E0CDE5FE
:1000F000D0E004C02197FE010E947C03CC35D107DB
:10010000C9F70E94D6020C9487030C94000090E07B
:10011000FC01EC55FF4F2491FC01E057FF4F849107
:10012000882399F090E0880F991FFC01EA57FF4F50
:10013000A591B491FC01E458FF4F859194918FB73C
:10014000F894EC91E22BEC938FBF089590E0FC01C2
:10015000E859FF4F2491FC01EC55FF4F3491FC010D
:10016000E057FF4FE491EE2309F43CC0222339F11C
:10017000233091F038F42130A9F0223001F584B514
:100180008F7D12C0273091F02830A1F02430B9F4CF
:10019000809180008F7D03C0809180008F77809355
:1001A00080000DC084B58F7784BD09C08091B000F8
:1001B0008F7703C08091B0008F7D8093B000F0E016
:1001C000EE0FFF1FE458FF4FA591B4919FB7F8942D
:1001D000611104C08C913095382302C0EC913E2B04
:1001E0003C939FBF08953FB7F89480911F01909171
:1001F0002001A0912101B091220126B5A89B05C044
:100200002F3F19F00196A11DB11D3FBFBA2FA92F95
:10021000982F8827820F911DA11DB11DBC01CD0112
:1002200042E0660F771F881F991F4A95D1F70895FE
:10023000CF92DF92EF92FF920F931F93CF93DF93B2
:100240006C017A018B01C0E0D0E0CE15DF0581F0B2
:10025000D8016D918D01D601ED91FC910190F08155
:10026000E02DC6010995892B11F02196EECF7E0174
:10027000C701DF91CF911F910F91FF90EF90DF9019
:10028000CF900895CF93DF93EC0160E08E810E94C0
:10029000A60061E08E810E94A60060E08E810E942F
:1002A000A6008BE891E00197F1F7DF91CF910895D7
:1002B000CF92DF92EF92FF920F931F93CF93DF9332
:1002C0006C017C0187E0E80EF11CC0E0D0E0062F55
:1002D00010E0B8010C2E02C0759567950A94E2F7FC
:1002E0006170F70181917F010E94A6002196C430C0
:1002F000D10579F7C601DF91CF911F910F91FF9042
:10030000EF90DF90CF900C944201CF92DF92EF926A
:10031000FF920F931F93CF93DF93EC01F62E642F80
:100320008C810E94A6008D818F3F19F060E00E94B1
:10033000A6008F850F2D10E084FF25C06E0187E099
:10034000C80ED11CE12CF12CB8010E2C02C0759501
:1003500067950A94E2F76170F60181916F010E943E
:10036000A600FFEFEF1AFF0A88E0E816F10461F734
:10037000CE01DF91CF911F910F91FF90EF90DF9011
:10038000CF900C944201B80184E0759567958A95E9
:10039000E1F7CE010E9458016F2DCE01DF91CF9180
:1003A0001F910F91FF90EF90DF90CF900C94580128
:1003B00040E0682F83E291E00C948501CF93DF93B6
:1003C000823028F0909132019860909332018093AE
:1003D00036011092370180E48093380180E18093E8
:1003E000390180E580933A01809127010E948700BE
:1003F000809128018F3F11F00E9487008091290190
:100400000E948700C3E2D1E09E01235231408091D7
:10041000320184FD03C084E090E002C088E090E0F7
:1004200021962817390724F48E810E948700ECCF8B
:100430008BE39DE00197F1F760E0809127010E9436
:10044000A60060E0809129010E94A6008091280109
:100450008F3F19F060E00E94A6008091320184FD78
:1004600020C063E083E291E00E945801CBE4D6E42F
:10047000CE010197F1F763E083E291E00E94580119
:100480002197F1F763E083E291E00E94580183E550
:1004900092E00197F1F762E083E291E00E94580157
:1004A00015C080620E94D8018BE496E40197F1F7B1
:1004B0008091320180620E94D80183E592E0019729
:1004C000F1F78091320180620E94D801809132015F
:1004D00080620E94D80184E0809333018CE00E9406
:1004E000D80181E00E94D8018BE39FE10197F1F7E9
:1004F00082E08093340186E0DF91CF910C94D801A3
:1005000041E00E94850181E090E00895089580E037
:1005100090E008950E9482031F920F920FB60F92EF
:1005200011242F933F938F939F93AF93BF93809109
:100530001B0190911C01A0911D01B0911E013091F1
:100540001A0123E0230F2D3720F40196A11DB11DC0
:1005500005C026E8230F0296A11DB11D20931A01A4
:1005600080931B0190931C01A0931D01B0931E0169
:1005700080911F0190912001A0912101B091220151
:100580000196A11DB11D80931F0190932001A0939E
:100590002101B0932201BF91AF919F918F913F9123
:1005A0002F910F900FBE0F901F901895789484B5DF
:1005B000826084BD84B5816084BD85B5826085BD5F
:1005C00085B5816085BD80916E00816080936E00ED
:1005D00010928100809181008260809381008091DF
:1005E0008100816080938100809180008160809390
:1005F00080008091B10084608093B1008091B00050
:1006000081608093B00080917A00846080937A004A
:1006100080917A00826080937A0080917A00816074
:1006200080937A0080917A00806880937A0010929B
:10063000C10082E00E94DE01C0E0D0E0E1E08091F4
:1006400036018111E0E0E195F0E0ED5DFE4F848937
:1006500080680E94D8014DE050E06CE071E083E2D8
:1006600091E00E9418010E94F3004B015C0184E6B6
:10067000C82ED12CE12CF12C0E94F300DC01CB011F
:1006800088199909AA09BB09883E9340A105B105BB
:1006900098F321E0C21AD108E108F10888EE880E2B
:1006A00083E0981EA11CB11CC114D104E104F10423
:1006B00019F7209719F20E940000C0CFE3E2F1E0A1
:1006C0001382128284E091E09183808389E08483A5
:1006D0008FEF858388E0868387E0878386E0808745
:1006E00085E0818784E082871386148615861686C6
:1006F000178681E00C94DE01EE0FFF1F0590F49148
:10070000E02D099481E090E0F8940C948703F8942C
:02071000FFCF19
:100712000000000080021801870286025368697691
:0A072200616D2052616A7075740069
:00000001FF
