:100000000C9462000C948A000C948A000C948A0070
:100010000C948A000C948A000C948A000C948A0038
:100020000C948A000C948A000C948A000C948A0028
:100030000C948A000C948A000C948A000C948A0018
:100040000C9485030C948A000C948A000C948A000A
:100050000C948A000C948A000C948A000C948A00F8
:100060000C948A000C948A000000000024002700F1
:100070002A0000000000250028002B0000000000DE
:1000800023002600290004040404040404040202DA
:100090000202020203030303030301020408102007
:1000A0004080010204081020010204081020000012
:1000B0000008000201000003040700000000000027
:1000C0000000940511241FBECFEFD8E0DEBFCDBFE6
:1000D00011E0A0E0B1E0E0E3FCE002C005900D9289
:1000E000AA32B107D9F721E0AAE2B1E001C01D921E
:1000F000AA3BB207E1F710E0C2E6D0E004C02197C6
:10010000FE010E940B06C136D107C9F70E94CF033A
:100110000C9416060C94000096E0899FD0011124DF
:10012000AD5CBE4F90967C936E935F9791E09196F5
:100130009C93919790919F01E091A001F091A10172
:10014000992339F0309751F0811108C080914F0107
:1001500004C0309719F05C968C9109940895CF9261
:10016000DF92EF92FF920F931F9396E0899FF00129
:100170001124ED5CFE4F11A2278D30A121303105F5
:1001800039F158F02230310509F447C023303105E8
:1001900009F04FC060E070E044C0662309F449C034
:1001A00061E070E00E948C002FB7F89480912F01DD
:1001B00090913001A0913101B09132012FBF809315
:1001C0008B0190938C01A0938D01B0938E0131C06F
:1001D0009FB7F894C0902F01D0903001E09031018A
:1001E000F09032019FBF00918B0110918C01209102
:1001F0008D0130918E01C01AD10AE20AF30A0091F2
:100200009D0110919E0120E030E00C151D052E058A
:100210003F0518F462E070E004C061110AC063E0B9
:1002200070E01F910F91FF90EF90DF90CF900C94B2
:100230008C001F910F91FF90EF90DF90CF90089569
:10024000833081F028F4813099F08230A1F0089554
:100250008730A9F08830B9F08430D1F480918000E3
:100260008F7D03C0809180008F77809380000895F8
:1002700084B58F7702C084B58F7D84BD0895809149
:10028000B0008F7703C08091B0008F7D8093B00065
:100290000895CF93DF93282F30E0F901E255FF4F07
:1002A0008491F901E656FF4FD491F901EA57FF4FC7
:1002B000C491CC2391F081110E942001EC2FF0E039
:1002C000EE0FFF1FE458FF4FA591B491EC91ED2381
:1002D00081E090E021F480E002C080E090E0DF91D6
:1002E000CF9108951F93CF93DF93282F30E0F9012A
:1002F000E255FF4F8491F901E656FF4FD491F90181
:10030000EA57FF4FC491CC23C1F0162F81110E94F0
:100310002001EC2FF0E0EE0FFF1FEE58FF4FA591EC
:10032000B4919FB7F894111104C08C91D095D82343
:1003300002C0EC91DE2BDC939FBFDF91CF911F9128
:100340000895CF93DF9390E0FC01E656FF4F249190
:10035000FC01EA57FF4F8491882361F190E0880FF8
:10036000991FFC01E859FF4FC591D491FC01EE584B
:10037000FF4FA591B491611109C09FB7F89488818E
:10038000209582238883EC912E230BC0623061F488
:100390009FB7F8948881322F309583238883EC911E
:1003A0002E2B2C939FBF06C08FB7F894E8812E2B7D
:1003B00028838FBFDF91CF9108953FB7F894809144
:1003C0002B0190912C01A0912D01B0912E0126B509
:1003D000A89B05C02F3F19F00196A11DB11D3FBF7D
:1003E000BA2FA92F982F8827820F911DA11DB11D0B
:1003F000BC01CD0142E0660F771F881F991F4A9507
:10040000D1F70895862F642F0C94A101862F642FB5
:100410000C947201862F0C944901CF92DF92EF92D7
:10042000FF920F931F93CF93DF936C017A018B019F
:10043000C0E0D0E0CE15DF0581F0D8016D918D01CF
:10044000D601ED91FC910190F081E02DC601099556
:10045000892B11F02196EECF7E01C701DF91CF915C
:100460001F910F91FF90EF90DF90CF900895CF9361
:10047000DF93EC0160E08E810E94720161E08E8169
:100480000E94720160E08E810E9472018BE891E00F
:100490000197F1F7DF91CF910895CF92DF92EF921C
:1004A000FF920F931F93CF93DF936C017C0187E042
:1004B000E80EF11CC0E0D0E0062F10E0B8010C2ED1
:1004C00002C0759567950A94E2F76170F701819112
:1004D0007F010E9472012196C430D10579F7C601CF
:1004E000DF91CF911F910F91FF90EF90DF90CF9010
:1004F0000C943702CF92DF92EF92FF920F931F93EB
:10050000CF93DF93EC01F62E642F8C810E94720151
:100510008D818F3F19F060E00E9472018F850F2D51
:1005200010E084FF25C06E0187E0C80ED11CE12CCD
:10053000F12CB8010E2C02C0759567950A94E2F76C
:100540006170F60181916F010E947201FFEFEF1A55
:10055000FF0A88E0E816F10461F7CE01DF91CF9140
:100560001F910F91FF90EF90DF90CF900C94370286
:10057000B80184E0759567958A95E1F7CE010E94F0
:100580004D026F2DCE01DF91CF911F910F91FF9002
:10059000EF90DF90CF900C944D0240E0682F82EAFC
:1005A00091E00C947A02CF93DF93823028F09091FF
:1005B000B10198609093B1018093B5011092B6019A
:1005C00080E48093B70180E18093B80180E5809357
:1005D000B90161E08091A6010E94A1018091A7016B
:1005E0008F3F19F061E00E94A10161E08091A801B4
:1005F0000E94A101C2EAD1E09E01225A31408091BD
:10060000B10184FD03C084E090E002C088E090E086
:100610002196281739072CF461E08E810E94A101F0
:10062000EBCF8BE39DE00197F1F760E08091A601AD
:100630000E94720160E08091A8010E947201809185
:10064000A7018F3F19F060E00E9472018091B10113
:1006500084FD20C063E082EA91E00E944D02CBE479
:10066000D6E4CE010197F1F763E082EA91E00E94BF
:100670004D022197F1F763E082EA91E00E944D027A
:1006800083E592E00197F1F762E082EA91E00E944F
:100690004D0215C080620E94CD028BE496E4019762
:1006A000F1F78091B10180620E94CD0283E592E072
:1006B0000197F1F78091B10180620E94CD02809193
:1006C000B10180620E94CD0284E08093B2018CE08F
:1006D0000E94CD0281E00E94CD028BE39FE1019751
:1006E000F1F782E08093B30186E0DF91CF910C9423
:1006F000CD0241E00E947A0281E090E008950895E1
:1007000080E090E008950E9411061F920F920FB6AC
:100710000F9211242F933F938F939F93AF93BF9387
:1007200080912F0190913001A0913101B09132015F
:1007300030912A0123E0230F2D3720F40196A11DCB
:10074000B11D05C026E8230F0296A11DB11D2093FF
:100750002A0180932F0190933001A0933101B0932F
:10076000320180912B0190912C01A0912D01B0912B
:100770002E010196A11DB11D80932B0190932C0198
:10078000A0932D01B0932E01BF91AF919F918F91B6
:100790003F912F910F900FBE0F901F901895789456
:1007A00084B5826084BD84B5816084BD85B5826076
:1007B00085BD85B5816085BD80916E008160809327
:1007C0006E00109281008091810082608093810090
:1007D00080918100816080938100809180008160A0
:1007E000809380008091B10084608093B1008091FB
:1007F000B00081608093B00080917A008460809323
:100800007A0080917A00826080937A0080917A00E9
:10081000816080937A0080917A00806880937A006A
:100820001092C10082E00E94D302412C512C32016F
:10083000439422242A94322C21E020939F018FB7E5
:10084000F89440912F0150913001609131017091E5
:1008500032018FBF80918F0190919001A091910101
:10086000B0919201481B590B6A0B7B0B80919B0145
:1008700090919C01A0E0B0E084179507A607B70708
:1008800008F0E6C0C0E080919901C81710F0912CE3
:1008900040C0E0919501F0919601EC0FF11D62E0EE
:1008A00080810E94A101CF5FEECFC82DD0E0E09102
:1008B0009501F0919601EC0FFD1F80810E94490186
:1008C0002496CC0FDD1FCD5CDE4F892B09F04BC089
:1008D000888199818A299B2999838883839480912F
:1008E0009901881610F3E0919701F0919801E00FBB
:1008F000F11F61E080810E947201809197019091C7
:100900009801FC01E00FF11F60E080810E94A101CD
:10091000939480919A01981658F5092D10E0E09172
:100920009701F0919801E00FF11F61E080810E9432
:10093000A101E0919701F0919801E00FF11F60E0B3
:1009400080810E947201D301C201092C04C0880F6A
:10095000991FAA1FBB1F0A94D2F75C017C01E09487
:10096000F094812CBCCF888199818E219F21B4CFB6
:10097000C3E3D1E0FE01878D90A1892B21F4148E71
:10098000368E258E11A2369631E0EF36F30799F7B1
:1009900010E080919901181770F500E0E12EF12C1C
:1009A000C701880F991FFC01E55CFE4F7F01209174
:1009B0009A010217F0F4F70140815181002E02C024
:1009C000569547950A94E2F7642F6170129F900143
:1009D0001124200F311DE3E3F1E080E0A58DB68DF9
:1009E0002A173B0709F496C08F5F36968A30B1F715
:1009F00073C01F5FCECF80E099A1911181E0269650
:100A000021E0CF36D207C1F79FB7F89440912F016C
:100A10005091300160913101709132019FBF40933C
:100A20008F015093900160939101709392018823FC
:100A300079F080915401882359F08091520190916E
:100A40005301019729F4C0914F01C11104C03CC06A
:100A500010929F0139C0E1E08091B5018111E0E081
:100A6000E195F0E0EE55FE4F848980680E94CD024A
:100A700041E06C2F82EA91E00E947A020E94DD013F
:100A80006B017C018AE0882E912CA12CB12C0E9454
:100A9000DD01DC01CB018C199D09AE09BF09883E3F
:100AA0009340A105B10598F331E0831A9108A1089C
:100AB000B10888EEC80E83E0D81EE11CF11C811439
:100AC0009104A104B10419F720E030E0232B09F4CC
:100AD000B3CE0E940000B0CE40FF1EC0E3E3F1E0C1
:100AE00080E090E0448D411119C0E0919301F091B4
:100AF0009401E20FF31F7081F6E0F89FA001F99FC7
:100B0000500D1124FA01ED5CFE4F748F368F258F46
:100B100010A2178E0E94AF000F5F49CF0196369644
:100B20008A309105F9F6F8CF10923501109239010B
:100B30001092380110923A018CE191E090933401C7
:100B400080933301E3E3F1E0148E10A2178E11A21B
:100B5000369681E0EF36F807B9F785E291E0909399
:100B600096018093950182E291E0909398018093A1
:100B7000970184E08093990183E080939A0180E05B
:100B800091E090939401809393018AE090E0909398
:100B90009C0180939B0184EF91E090939E01809350
:100BA0009D011092A1011092A00110928F0110924C
:100BB0009001109291011092920110929F01109257
:100BC000A5011092A40180E191E09093A30180938C
:100BD000A2018DE08093A6018FEF8093A7018CE0A6
:100BE0008093A8018BE08093A9018AE08093AA01F9
:100BF00089E08093AB0188E08093AC011092AD0155
:100C00001092AE011092AF011092B0011092B1019A
:100C100081E00C94D302EE0FFF1F0590F491E02DBC
:100C2000099481E090E0F8940C941606F894FFCFB4
:100C30003738393435363132332A3023000000005A
:100C400079030D0280037F03000000000202060208
:0A0C50000A02030201070605040072
:00000001FF
